{
  "_format": "hh-sol-artifact-1",
  "contractName": "VotingSafe",
  "sourceName": "contracts/VotingSafe.sol",
  "abi": [
    {
      "inputs": [
        {
          "internalType": "string[]",
          "name": "proposalNames",
          "type": "string[]"
        }
      ],
      "stateMutability": "nonpayable",
      "type": "constructor"
    },
    {
      "inputs": [],
      "name": "getContractBalance",
      "outputs": [
        {
          "internalType": "uint256",
          "name": "",
          "type": "uint256"
        }
      ],
      "stateMutability": "view",
      "type": "function"
    },
    {
      "inputs": [
        {
          "internalType": "uint256",
          "name": "index",
          "type": "uint256"
        }
      ],
      "name": "getProposal",
      "outputs": [
        {
          "internalType": "string",
          "name": "",
          "type": "string"
        },
        {
          "internalType": "uint256",
          "name": "",
          "type": "uint256"
        }
      ],
      "stateMutability": "view",
      "type": "function"
    },
    {
      "inputs": [],
      "name": "getProposals",
      "outputs": [
        {
          "components": [
            {
              "internalType": "string",
              "name": "name",
              "type": "string"
            },
            {
              "internalType": "uint256",
              "name": "voteCount",
              "type": "uint256"
            }
          ],
          "internalType": "struct VotingSafe.Proposal[]",
          "name": "",
          "type": "tuple[]"
        }
      ],
      "stateMutability": "view",
      "type": "function"
    },
    {
      "inputs": [
        {
          "internalType": "address",
          "name": "",
          "type": "address"
        }
      ],
      "name": "hasVoted",
      "outputs": [
        {
          "internalType": "bool",
          "name": "",
          "type": "bool"
        }
      ],
      "stateMutability": "view",
      "type": "function"
    },
    {
      "inputs": [],
      "name": "owner",
      "outputs": [
        {
          "internalType": "address",
          "name": "",
          "type": "address"
        }
      ],
      "stateMutability": "view",
      "type": "function"
    },
    {
      "inputs": [
        {
          "internalType": "uint256",
          "name": "",
          "type": "uint256"
        }
      ],
      "name": "proposals",
      "outputs": [
        {
          "internalType": "string",
          "name": "name",
          "type": "string"
        },
        {
          "internalType": "uint256",
          "name": "voteCount",
          "type": "uint256"
        }
      ],
      "stateMutability": "view",
      "type": "function"
    },
    {
      "inputs": [],
      "name": "resetVote",
      "outputs": [],
      "stateMutability": "nonpayable",
      "type": "function"
    },
    {
      "inputs": [
        {
          "internalType": "uint256",
          "name": "proposalIndex",
          "type": "uint256"
        }
      ],
      "name": "vote",
      "outputs": [],
      "stateMutability": "payable",
      "type": "function"
    },
    {
      "inputs": [],
      "name": "votePrice",
      "outputs": [
        {
          "internalType": "uint256",
          "name": "",
          "type": "uint256"
        }
      ],
      "stateMutability": "view",
      "type": "function"
    },
    {
      "inputs": [
        {
          "internalType": "address",
          "name": "",
          "type": "address"
        }
      ],
      "name": "votedProposal",
      "outputs": [
        {
          "internalType": "uint256",
          "name": "",
          "type": "uint256"
        }
      ],
      "stateMutability": "view",
      "type": "function"
    },
    {
      "inputs": [],
      "name": "withdraw",
      "outputs": [],
      "stateMutability": "nonpayable",
      "type": "function"
    }
  ],
  "bytecode": "0x6080604052662386f26fc1000060015534801561001b57600080fd5b506040516118df3803806118df833981810160405281019061003d9190610375565b336000806101000a81548173ffffffffffffffffffffffffffffffffffffffff021916908373ffffffffffffffffffffffffffffffffffffffff16021790555060005b815181101561011357600260405180604001604052808484815181106100a9576100a86103be565b5b602002602001015181526020016000815250908060018154018082558091505060019003906000526020600020906002020160009091909190915060008201518160000190816100f9919061060e565b506020820151816001015550508080600101915050610080565b50506106e0565b6000604051905090565b600080fd5b600080fd5b600080fd5b6000601f19601f8301169050919050565b7f4e487b7100000000000000000000000000000000000000000000000000000000600052604160045260246000fd5b61017c82610133565b810181811067ffffffffffffffff8211171561019b5761019a610144565b5b80604052505050565b60006101ae61011a565b90506101ba8282610173565b919050565b600067ffffffffffffffff8211156101da576101d9610144565b5b602082029050602081019050919050565b600080fd5b600080fd5b600067ffffffffffffffff8211156102105761020f610144565b5b61021982610133565b9050602081019050919050565b60005b83811015610244578082015181840152602081019050610229565b60008484015250505050565b600061026361025e846101f5565b6101a4565b90508281526020810184848401111561027f5761027e6101f0565b5b61028a848285610226565b509392505050565b600082601f8301126102a7576102a661012e565b5b81516102b7848260208601610250565b91505092915050565b60006102d36102ce846101bf565b6101a4565b905080838252602082019050602084028301858111156102f6576102f56101eb565b5b835b8181101561033d57805167ffffffffffffffff81111561031b5761031a61012e565b5b8086016103288982610292565b855260208501945050506020810190506102f8565b5050509392505050565b600082601f83011261035c5761035b61012e565b5b815161036c8482602086016102c0565b91505092915050565b60006020828403121561038b5761038a610124565b5b600082015167ffffffffffffffff8111156103a9576103a8610129565b5b6103b584828501610347565b91505092915050565b7f4e487b7100000000000000000000000000000000000000000000000000000000600052603260045260246000fd5b600081519050919050565b7f4e487b7100000000000000000000000000000000000000000000000000000000600052602260045260246000fd5b6000600282049050600182168061043f57607f821691505b602082108103610452576104516103f8565b5b50919050565b60008190508160005260206000209050919050565b60006020601f8301049050919050565b600082821b905092915050565b6000600883026104ba7fffffffffffffffffffffffffffffffffffffffffffffffffffffffffffffffff8261047d565b6104c4868361047d565b95508019841693508086168417925050509392505050565b6000819050919050565b6000819050919050565b600061050b610506610501846104dc565b6104e6565b6104dc565b9050919050565b6000819050919050565b610525836104f0565b61053961053182610512565b84845461048a565b825550505050565b600090565b61054e610541565b61055981848461051c565b505050565b5b8181101561057d57610572600082610546565b60018101905061055f565b5050565b601f8211156105c25761059381610458565b61059c8461046d565b810160208510156105ab578190505b6105bf6105b78561046d565b83018261055e565b50505b505050565b600082821c905092915050565b60006105e5600019846008026105c7565b1980831691505092915050565b60006105fe83836105d4565b9150826002028217905092915050565b610617826103ed565b67ffffffffffffffff8111156106305761062f610144565b5b61063a8254610427565b610645828285610581565b600060209050601f8311600181146106785760008415610666578287015190505b61067085826105f2565b8655506106d8565b601f19841661068686610458565b60005b828110156106ae57848901518255600182019150602085019450602081019050610689565b868310156106cb57848901516106c7601f8916826105d4565b8355505b6001600288020188555050505b505050505050565b6111f0806106ef6000396000f3fe60806040526004361061009c5760003560e01c806362564c481161006457806362564c48146101665780636f9fb98a14610191578063860c851a146101bc5780638da5cb5b146101e7578063b544c39e14610212578063c7f758a81461024f5761009c565b80630121b93f146100a1578063013cf08b146100bd57806309eef43e146100fb578063329a8cfa146101385780633ccfd60b1461014f575b600080fd5b6100bb60048036038101906100b69190610a90565b61028d565b005b3480156100c957600080fd5b506100e460048036038101906100df9190610a90565b610482565b6040516100f2929190610b5c565b60405180910390f35b34801561010757600080fd5b50610122600480360381019061011d9190610bea565b61053e565b60405161012f9190610c32565b60405180910390f35b34801561014457600080fd5b5061014d61055e565b005b34801561015b57600080fd5b50610164610709565b005b34801561017257600080fd5b5061017b610800565b6040516101889190610da5565b60405180910390f35b34801561019d57600080fd5b506101a66108fb565b6040516101b39190610dc7565b60405180910390f35b3480156101c857600080fd5b506101d1610903565b6040516101de9190610dc7565b60405180910390f35b3480156101f357600080fd5b506101fc610909565b6040516102099190610df1565b60405180910390f35b34801561021e57600080fd5b5061023960048036038101906102349190610bea565b61092d565b6040516102469190610dc7565b60405180910390f35b34801561025b57600080fd5b5061027660048036038101906102719190610a90565b610945565b604051610284929190610b5c565b60405180910390f35b600360003373ffffffffffffffffffffffffffffffffffffffff1673ffffffffffffffffffffffffffffffffffffffff16815260200190815260200160002060009054906101000a900460ff161561031a576040517f08c379a000000000000000000000000000000000000000000000000000000000815260040161031190610e58565b60405180910390fd5b6002805490508110610361576040517f08c379a000000000000000000000000000000000000000000000000000000000815260040161035890610ec4565b60405180910390fd5b6001543410156103a6576040517f08c379a000000000000000000000000000000000000000000000000000000000815260040161039d90610f30565b60405180910390fd5b6001600282815481106103bc576103bb610f50565b5b906000526020600020906002020160010160008282546103dc9190610fae565b925050819055506001600360003373ffffffffffffffffffffffffffffffffffffffff1673ffffffffffffffffffffffffffffffffffffffff16815260200190815260200160002060006101000a81548160ff02191690831515021790555080600460003373ffffffffffffffffffffffffffffffffffffffff1673ffffffffffffffffffffffffffffffffffffffff1681526020019081526020016000208190555050565b6002818154811061049257600080fd5b90600052602060002090600202016000915090508060000180546104b590611011565b80601f01602080910402602001604051908101604052809291908181526020018280546104e190611011565b801561052e5780601f106105035761010080835404028352916020019161052e565b820191906000526020600020905b81548152906001019060200180831161051157829003601f168201915b5050505050908060010154905082565b60036020528060005260406000206000915054906101000a900460ff1681565b600360003373ffffffffffffffffffffffffffffffffffffffff1673ffffffffffffffffffffffffffffffffffffffff16815260200190815260200160002060009054906101000a900460ff166105ea576040517f08c379a00000000000000000000000000000000000000000000000000000000081526004016105e19061108e565b60405180910390fd5b6000600460003373ffffffffffffffffffffffffffffffffffffffff1673ffffffffffffffffffffffffffffffffffffffff16815260200190815260200160002054905060016002828154811061064457610643610f50565b5b9060005260206000209060020201600101600082825461066491906110ae565b925050819055506000600360003373ffffffffffffffffffffffffffffffffffffffff1673ffffffffffffffffffffffffffffffffffffffff16815260200190815260200160002060006101000a81548160ff021916908315150217905550600460003373ffffffffffffffffffffffffffffffffffffffff1673ffffffffffffffffffffffffffffffffffffffff1681526020019081526020016000206000905550565b60008054906101000a900473ffffffffffffffffffffffffffffffffffffffff1673ffffffffffffffffffffffffffffffffffffffff163373ffffffffffffffffffffffffffffffffffffffff1614610797576040517f08c379a000000000000000000000000000000000000000000000000000000000815260040161078e9061112e565b60405180910390fd5b60008054906101000a900473ffffffffffffffffffffffffffffffffffffffff1673ffffffffffffffffffffffffffffffffffffffff166108fc479081150290604051600060405180830381858888f193505050501580156107fd573d6000803e3d6000fd5b50565b60606002805480602002602001604051908101604052809291908181526020016000905b828210156108f2578382906000526020600020906002020160405180604001604052908160008201805461085790611011565b80601f016020809104026020016040519081016040528092919081815260200182805461088390611011565b80156108d05780601f106108a5576101008083540402835291602001916108d0565b820191906000526020600020905b8154815290600101906020018083116108b357829003601f168201915b5050505050815260200160018201548152505081526020019060010190610824565b50505050905090565b600047905090565b60015481565b60008054906101000a900473ffffffffffffffffffffffffffffffffffffffff1681565b60046020528060005260406000206000915090505481565b606060006002805490508310610990576040517f08c379a00000000000000000000000000000000000000000000000000000000081526004016109879061119a565b60405180910390fd5b6000600284815481106109a6576109a5610f50565b5b906000526020600020906002020190508060000181600101548180546109cb90611011565b80601f01602080910402602001604051908101604052809291908181526020018280546109f790611011565b8015610a445780601f10610a1957610100808354040283529160200191610a44565b820191906000526020600020905b815481529060010190602001808311610a2757829003601f168201915b505050505091509250925050915091565b600080fd5b6000819050919050565b610a6d81610a5a565b8114610a7857600080fd5b50565b600081359050610a8a81610a64565b92915050565b600060208284031215610aa657610aa5610a55565b5b6000610ab484828501610a7b565b91505092915050565b600081519050919050565b600082825260208201905092915050565b60005b83811015610af7578082015181840152602081019050610adc565b60008484015250505050565b6000601f19601f8301169050919050565b6000610b1f82610abd565b610b298185610ac8565b9350610b39818560208601610ad9565b610b4281610b03565b840191505092915050565b610b5681610a5a565b82525050565b60006040820190508181036000830152610b768185610b14565b9050610b856020830184610b4d565b9392505050565b600073ffffffffffffffffffffffffffffffffffffffff82169050919050565b6000610bb782610b8c565b9050919050565b610bc781610bac565b8114610bd257600080fd5b50565b600081359050610be481610bbe565b92915050565b600060208284031215610c0057610bff610a55565b5b6000610c0e84828501610bd5565b91505092915050565b60008115159050919050565b610c2c81610c17565b82525050565b6000602082019050610c476000830184610c23565b92915050565b600081519050919050565b600082825260208201905092915050565b6000819050602082019050919050565b600082825260208201905092915050565b6000610c9582610abd565b610c9f8185610c79565b9350610caf818560208601610ad9565b610cb881610b03565b840191505092915050565b610ccc81610a5a565b82525050565b60006040830160008301518482036000860152610cef8282610c8a565b9150506020830151610d046020860182610cc3565b508091505092915050565b6000610d1b8383610cd2565b905092915050565b6000602082019050919050565b6000610d3b82610c4d565b610d458185610c58565b935083602082028501610d5785610c69565b8060005b85811015610d935784840389528151610d748582610d0f565b9450610d7f83610d23565b925060208a01995050600181019050610d5b565b50829750879550505050505092915050565b60006020820190508181036000830152610dbf8184610d30565b905092915050565b6000602082019050610ddc6000830184610b4d565b92915050565b610deb81610bac565b82525050565b6000602082019050610e066000830184610de2565b92915050565b7f596f7520616c726561647920766f746564000000000000000000000000000000600082015250565b6000610e42601183610ac8565b9150610e4d82610e0c565b602082019050919050565b60006020820190508181036000830152610e7181610e35565b9050919050565b7f496e76616c69642070726f706f73616c00000000000000000000000000000000600082015250565b6000610eae601083610ac8565b9150610eb982610e78565b602082019050919050565b60006020820190508181036000830152610edd81610ea1565b9050919050565b7f4d696e696d756d20302e30312045544820726571756972656400000000000000600082015250565b6000610f1a601983610ac8565b9150610f2582610ee4565b602082019050919050565b60006020820190508181036000830152610f4981610f0d565b9050919050565b7f4e487b7100000000000000000000000000000000000000000000000000000000600052603260045260246000fd5b7f4e487b7100000000000000000000000000000000000000000000000000000000600052601160045260246000fd5b6000610fb982610a5a565b9150610fc483610a5a565b9250828201905080821115610fdc57610fdb610f7f565b5b92915050565b7f4e487b7100000000000000000000000000000000000000000000000000000000600052602260045260246000fd5b6000600282049050600182168061102957607f821691505b60208210810361103c5761103b610fe2565b5b50919050565b7f596f7520686176656e277420766f746564207965740000000000000000000000600082015250565b6000611078601583610ac8565b915061108382611042565b602082019050919050565b600060208201905081810360008301526110a78161106b565b9050919050565b60006110b982610a5a565b91506110c483610a5a565b92508282039050818111156110dc576110db610f7f565b5b92915050565b7f4f6e6c79206f776e65722063616e207769746864726177000000000000000000600082015250565b6000611118601783610ac8565b9150611123826110e2565b602082019050919050565b600060208201905081810360008301526111478161110b565b9050919050565b7f496e76616c696420696e64657800000000000000000000000000000000000000600082015250565b6000611184600d83610ac8565b915061118f8261114e565b602082019050919050565b600060208201905081810360008301526111b381611177565b905091905056fea2646970667358221220d4b614485c68ee6bfb9f999bba7c23dfb8928ae9ad933ff275f91ee092a10feb64736f6c634300081c0033",
  "linkReferences": {},
  "deployedLinkReferences": {}
}