{
  "_format": "hh-sol-artifact-1",
  "contractName": "VotingSafe",
  "sourceName": "contracts/VotingSafe.sol",
  "abi": [
    {
      "inputs": [
        {
          "internalType": "string[]",
          "name": "proposalNames",
          "type": "string[]"
        }
      ],
      "stateMutability": "nonpayable",
      "type": "constructor"
    },
    {
      "inputs": [],
      "name": "getContractBalance",
      "outputs": [
        {
          "internalType": "uint256",
          "name": "",
          "type": "uint256"
        }
      ],
      "stateMutability": "view",
      "type": "function"
    },
    {
      "inputs": [
        {
          "internalType": "uint256",
          "name": "index",
          "type": "uint256"
        }
      ],
      "name": "getProposal",
      "outputs": [
        {
          "internalType": "string",
          "name": "",
          "type": "string"
        },
        {
          "internalType": "uint256",
          "name": "",
          "type": "uint256"
        }
      ],
      "stateMutability": "view",
      "type": "function"
    },
    {
      "inputs": [],
      "name": "getProposals",
      "outputs": [
        {
          "components": [
            {
              "internalType": "string",
              "name": "name",
              "type": "string"
            },
            {
              "internalType": "uint256",
              "name": "voteCount",
              "type": "uint256"
            }
          ],
          "internalType": "struct VotingSafe.Proposal[]",
          "name": "",
          "type": "tuple[]"
        }
      ],
      "stateMutability": "view",
      "type": "function"
    },
    {
      "inputs": [
        {
          "internalType": "address",
          "name": "",
          "type": "address"
        }
      ],
      "name": "hasVoted",
      "outputs": [
        {
          "internalType": "bool",
          "name": "",
          "type": "bool"
        }
      ],
      "stateMutability": "view",
      "type": "function"
    },
    {
      "inputs": [],
      "name": "owner",
      "outputs": [
        {
          "internalType": "address",
          "name": "",
          "type": "address"
        }
      ],
      "stateMutability": "view",
      "type": "function"
    },
    {
      "inputs": [
        {
          "internalType": "uint256",
          "name": "",
          "type": "uint256"
        }
      ],
      "name": "proposals",
      "outputs": [
        {
          "internalType": "string",
          "name": "name",
          "type": "string"
        },
        {
          "internalType": "uint256",
          "name": "voteCount",
          "type": "uint256"
        }
      ],
      "stateMutability": "view",
      "type": "function"
    },
    {
      "inputs": [
        {
          "internalType": "uint256",
          "name": "proposalIndex",
          "type": "uint256"
        }
      ],
      "name": "vote",
      "outputs": [],
      "stateMutability": "payable",
      "type": "function"
    },
    {
      "inputs": [],
      "name": "votePrice",
      "outputs": [
        {
          "internalType": "uint256",
          "name": "",
          "type": "uint256"
        }
      ],
      "stateMutability": "view",
      "type": "function"
    },
    {
      "inputs": [],
      "name": "withdraw",
      "outputs": [],
      "stateMutability": "nonpayable",
      "type": "function"
    }
  ],
  "bytecode": "0x6080604052662386f26fc1000060015534801561001b57600080fd5b506040516115ce3803806115ce833981810160405281019061003d9190610375565b336000806101000a81548173ffffffffffffffffffffffffffffffffffffffff021916908373ffffffffffffffffffffffffffffffffffffffff16021790555060005b815181101561011357600260405180604001604052808484815181106100a9576100a86103be565b5b602002602001015181526020016000815250908060018154018082558091505060019003906000526020600020906002020160009091909190915060008201518160000190816100f9919061060e565b506020820151816001015550508080600101915050610080565b50506106e0565b6000604051905090565b600080fd5b600080fd5b600080fd5b6000601f19601f8301169050919050565b7f4e487b7100000000000000000000000000000000000000000000000000000000600052604160045260246000fd5b61017c82610133565b810181811067ffffffffffffffff8211171561019b5761019a610144565b5b80604052505050565b60006101ae61011a565b90506101ba8282610173565b919050565b600067ffffffffffffffff8211156101da576101d9610144565b5b602082029050602081019050919050565b600080fd5b600080fd5b600067ffffffffffffffff8211156102105761020f610144565b5b61021982610133565b9050602081019050919050565b60005b83811015610244578082015181840152602081019050610229565b60008484015250505050565b600061026361025e846101f5565b6101a4565b90508281526020810184848401111561027f5761027e6101f0565b5b61028a848285610226565b509392505050565b600082601f8301126102a7576102a661012e565b5b81516102b7848260208601610250565b91505092915050565b60006102d36102ce846101bf565b6101a4565b905080838252602082019050602084028301858111156102f6576102f56101eb565b5b835b8181101561033d57805167ffffffffffffffff81111561031b5761031a61012e565b5b8086016103288982610292565b855260208501945050506020810190506102f8565b5050509392505050565b600082601f83011261035c5761035b61012e565b5b815161036c8482602086016102c0565b91505092915050565b60006020828403121561038b5761038a610124565b5b600082015167ffffffffffffffff8111156103a9576103a8610129565b5b6103b584828501610347565b91505092915050565b7f4e487b7100000000000000000000000000000000000000000000000000000000600052603260045260246000fd5b600081519050919050565b7f4e487b7100000000000000000000000000000000000000000000000000000000600052602260045260246000fd5b6000600282049050600182168061043f57607f821691505b602082108103610452576104516103f8565b5b50919050565b60008190508160005260206000209050919050565b60006020601f8301049050919050565b600082821b905092915050565b6000600883026104ba7fffffffffffffffffffffffffffffffffffffffffffffffffffffffffffffffff8261047d565b6104c4868361047d565b95508019841693508086168417925050509392505050565b6000819050919050565b6000819050919050565b600061050b610506610501846104dc565b6104e6565b6104dc565b9050919050565b6000819050919050565b610525836104f0565b61053961053182610512565b84845461048a565b825550505050565b600090565b61054e610541565b61055981848461051c565b505050565b5b8181101561057d57610572600082610546565b60018101905061055f565b5050565b601f8211156105c25761059381610458565b61059c8461046d565b810160208510156105ab578190505b6105bf6105b78561046d565b83018261055e565b50505b505050565b600082821c905092915050565b60006105e5600019846008026105c7565b1980831691505092915050565b60006105fe83836105d4565b9150826002028217905092915050565b610617826103ed565b67ffffffffffffffff8111156106305761062f610144565b5b61063a8254610427565b610645828285610581565b600060209050601f8311600181146106785760008415610666578287015190505b61067085826105f2565b8655506106d8565b601f19841661068686610458565b60005b828110156106ae57848901518255600182019150602085019450602081019050610689565b868310156106cb57848901516106c7601f8916826105d4565b8355505b6001600288020188555050505b505050505050565b610edf806106ef6000396000f3fe6080604052600436106100865760003560e01c806362564c481161005957806362564c48146101395780636f9fb98a14610164578063860c851a1461018f5780638da5cb5b146101ba578063c7f758a8146101e557610086565b80630121b93f1461008b578063013cf08b146100a757806309eef43e146100e55780633ccfd60b14610122575b600080fd5b6100a560048036038101906100a0919061081f565b610223565b005b3480156100b357600080fd5b506100ce60048036038101906100c9919061081f565b6103d4565b6040516100dc9291906108eb565b60405180910390f35b3480156100f157600080fd5b5061010c60048036038101906101079190610979565b610490565b60405161011991906109c1565b60405180910390f35b34801561012e57600080fd5b506101376104b0565b005b34801561014557600080fd5b5061014e6105a7565b60405161015b9190610b34565b60405180910390f35b34801561017057600080fd5b506101796106a2565b6040516101869190610b56565b60405180910390f35b34801561019b57600080fd5b506101a46106aa565b6040516101b19190610b56565b60405180910390f35b3480156101c657600080fd5b506101cf6106b0565b6040516101dc9190610b80565b60405180910390f35b3480156101f157600080fd5b5061020c6004803603810190610207919061081f565b6106d4565b60405161021a9291906108eb565b60405180910390f35b600360003373ffffffffffffffffffffffffffffffffffffffff1673ffffffffffffffffffffffffffffffffffffffff16815260200190815260200160002060009054906101000a900460ff16156102b0576040517f08c379a00000000000000000000000000000000000000000000000000000000081526004016102a790610be7565b60405180910390fd5b60028054905081106102f7576040517f08c379a00000000000000000000000000000000000000000000000000000000081526004016102ee90610c53565b60405180910390fd5b60015434101561033c576040517f08c379a000000000000000000000000000000000000000000000000000000000815260040161033390610cbf565b60405180910390fd5b60016002828154811061035257610351610cdf565b5b906000526020600020906002020160010160008282546103729190610d3d565b925050819055506001600360003373ffffffffffffffffffffffffffffffffffffffff1673ffffffffffffffffffffffffffffffffffffffff16815260200190815260200160002060006101000a81548160ff02191690831515021790555050565b600281815481106103e457600080fd5b906000526020600020906002020160009150905080600001805461040790610da0565b80601f016020809104026020016040519081016040528092919081815260200182805461043390610da0565b80156104805780601f1061045557610100808354040283529160200191610480565b820191906000526020600020905b81548152906001019060200180831161046357829003601f168201915b5050505050908060010154905082565b60036020528060005260406000206000915054906101000a900460ff1681565b60008054906101000a900473ffffffffffffffffffffffffffffffffffffffff1673ffffffffffffffffffffffffffffffffffffffff163373ffffffffffffffffffffffffffffffffffffffff161461053e576040517f08c379a000000000000000000000000000000000000000000000000000000000815260040161053590610e1d565b60405180910390fd5b60008054906101000a900473ffffffffffffffffffffffffffffffffffffffff1673ffffffffffffffffffffffffffffffffffffffff166108fc479081150290604051600060405180830381858888f193505050501580156105a4573d6000803e3d6000fd5b50565b60606002805480602002602001604051908101604052809291908181526020016000905b8282101561069957838290600052602060002090600202016040518060400160405290816000820180546105fe90610da0565b80601f016020809104026020016040519081016040528092919081815260200182805461062a90610da0565b80156106775780601f1061064c57610100808354040283529160200191610677565b820191906000526020600020905b81548152906001019060200180831161065a57829003601f168201915b50505050508152602001600182015481525050815260200190600101906105cb565b50505050905090565b600047905090565b60015481565b60008054906101000a900473ffffffffffffffffffffffffffffffffffffffff1681565b60606000600280549050831061071f576040517f08c379a000000000000000000000000000000000000000000000000000000000815260040161071690610e89565b60405180910390fd5b60006002848154811061073557610734610cdf565b5b9060005260206000209060020201905080600001816001015481805461075a90610da0565b80601f016020809104026020016040519081016040528092919081815260200182805461078690610da0565b80156107d35780601f106107a8576101008083540402835291602001916107d3565b820191906000526020600020905b8154815290600101906020018083116107b657829003601f168201915b505050505091509250925050915091565b600080fd5b6000819050919050565b6107fc816107e9565b811461080757600080fd5b50565b600081359050610819816107f3565b92915050565b600060208284031215610835576108346107e4565b5b60006108438482850161080a565b91505092915050565b600081519050919050565b600082825260208201905092915050565b60005b8381101561088657808201518184015260208101905061086b565b60008484015250505050565b6000601f19601f8301169050919050565b60006108ae8261084c565b6108b88185610857565b93506108c8818560208601610868565b6108d181610892565b840191505092915050565b6108e5816107e9565b82525050565b6000604082019050818103600083015261090581856108a3565b905061091460208301846108dc565b9392505050565b600073ffffffffffffffffffffffffffffffffffffffff82169050919050565b60006109468261091b565b9050919050565b6109568161093b565b811461096157600080fd5b50565b6000813590506109738161094d565b92915050565b60006020828403121561098f5761098e6107e4565b5b600061099d84828501610964565b91505092915050565b60008115159050919050565b6109bb816109a6565b82525050565b60006020820190506109d660008301846109b2565b92915050565b600081519050919050565b600082825260208201905092915050565b6000819050602082019050919050565b600082825260208201905092915050565b6000610a248261084c565b610a2e8185610a08565b9350610a3e818560208601610868565b610a4781610892565b840191505092915050565b610a5b816107e9565b82525050565b60006040830160008301518482036000860152610a7e8282610a19565b9150506020830151610a936020860182610a52565b508091505092915050565b6000610aaa8383610a61565b905092915050565b6000602082019050919050565b6000610aca826109dc565b610ad481856109e7565b935083602082028501610ae6856109f8565b8060005b85811015610b225784840389528151610b038582610a9e565b9450610b0e83610ab2565b925060208a01995050600181019050610aea565b50829750879550505050505092915050565b60006020820190508181036000830152610b4e8184610abf565b905092915050565b6000602082019050610b6b60008301846108dc565b92915050565b610b7a8161093b565b82525050565b6000602082019050610b956000830184610b71565b92915050565b7f596f7520616c726561647920766f746564000000000000000000000000000000600082015250565b6000610bd1601183610857565b9150610bdc82610b9b565b602082019050919050565b60006020820190508181036000830152610c0081610bc4565b9050919050565b7f496e76616c69642070726f706f73616c00000000000000000000000000000000600082015250565b6000610c3d601083610857565b9150610c4882610c07565b602082019050919050565b60006020820190508181036000830152610c6c81610c30565b9050919050565b7f4d696e696d756d20302e30312045544820726571756972656400000000000000600082015250565b6000610ca9601983610857565b9150610cb482610c73565b602082019050919050565b60006020820190508181036000830152610cd881610c9c565b9050919050565b7f4e487b7100000000000000000000000000000000000000000000000000000000600052603260045260246000fd5b7f4e487b7100000000000000000000000000000000000000000000000000000000600052601160045260246000fd5b6000610d48826107e9565b9150610d53836107e9565b9250828201905080821115610d6b57610d6a610d0e565b5b92915050565b7f4e487b7100000000000000000000000000000000000000000000000000000000600052602260045260246000fd5b60006002820490506001821680610db857607f821691505b602082108103610dcb57610dca610d71565b5b50919050565b7f4f6e6c79206f776e65722063616e207769746864726177000000000000000000600082015250565b6000610e07601783610857565b9150610e1282610dd1565b602082019050919050565b60006020820190508181036000830152610e3681610dfa565b9050919050565b7f496e76616c696420696e64657800000000000000000000000000000000000000600082015250565b6000610e73600d83610857565b9150610e7e82610e3d565b602082019050919050565b60006020820190508181036000830152610ea281610e66565b905091905056fea2646970667358221220886f716dc3ea22906d49e7f4b6e8b37be88ff4561947d9cb4a14b8449bf0a33064736f6c634300081c0033",
  "linkReferences": {},
  "deployedLinkReferences": {}
}