{
  "_format": "hh-sol-artifact-1",
  "contractName": "Safe",
  "sourceName": "contracts/Safe.sol",
  "abi": [
    {
      "inputs": [],
      "stateMutability": "nonpayable",
      "type": "constructor"
    },
    {
      "inputs": [
        {
          "internalType": "address",
          "name": "",
          "type": "address"
        }
      ],
      "name": "balanceAdd",
      "outputs": [
        {
          "internalType": "uint256",
          "name": "",
          "type": "uint256"
        }
      ],
      "stateMutability": "view",
      "type": "function"
    },
    {
      "inputs": [],
      "name": "owner",
      "outputs": [
        {
          "internalType": "address",
          "name": "",
          "type": "address"
        }
      ],
      "stateMutability": "view",
      "type": "function"
    },
    {
      "inputs": [],
      "name": "seeBalance",
      "outputs": [
        {
          "internalType": "uint256",
          "name": "",
          "type": "uint256"
        }
      ],
      "stateMutability": "view",
      "type": "function"
    },
    {
      "inputs": [],
      "name": "sendMoney",
      "outputs": [],
      "stateMutability": "payable",
      "type": "function"
    },
    {
      "inputs": [],
      "name": "viewBalance",
      "outputs": [
        {
          "internalType": "uint256",
          "name": "",
          "type": "uint256"
        }
      ],
      "stateMutability": "view",
      "type": "function"
    },
    {
      "inputs": [
        {
          "internalType": "uint256",
          "name": "amount",
          "type": "uint256"
        }
      ],
      "name": "withdraw",
      "outputs": [],
      "stateMutability": "payable",
      "type": "function"
    }
  ],
  "bytecode": "0x6080604052348015600f57600080fd5b50336000806101000a81548173ffffffffffffffffffffffffffffffffffffffff021916908373ffffffffffffffffffffffffffffffffffffffff1602179055506107848061005f6000396000f3fe6080604052600436106100555760003560e01c80632e1a7d4d1461005a5780633ff1e05b14610076578063429a1bb0146100a157806366034043146100cc5780638da5cb5b14610109578063cbedbf5a14610134575b600080fd5b610074600480360381019061006f9190610456565b61013e565b005b34801561008257600080fd5b5061008b6102ee565b6040516100989190610492565b60405180910390f35b3480156100ad57600080fd5b506100b66102f6565b6040516100c39190610492565b60405180910390f35b3480156100d857600080fd5b506100f360048036038101906100ee919061050b565b61033d565b6040516101009190610492565b60405180910390f35b34801561011557600080fd5b5061011e610355565b60405161012b9190610547565b60405180910390f35b61013c610379565b005b60008054906101000a900473ffffffffffffffffffffffffffffffffffffffff1673ffffffffffffffffffffffffffffffffffffffff163373ffffffffffffffffffffffffffffffffffffffff16146101cc576040517f08c379a00000000000000000000000000000000000000000000000000000000081526004016101c3906105bf565b60405180910390fd5b80600160003373ffffffffffffffffffffffffffffffffffffffff1673ffffffffffffffffffffffffffffffffffffffff16815260200190815260200160002054101561024e576040517f08c379a00000000000000000000000000000000000000000000000000000000081526004016102459061062b565b60405180910390fd5b80600160003373ffffffffffffffffffffffffffffffffffffffff1673ffffffffffffffffffffffffffffffffffffffff168152602001908152602001600020600082825461029d919061067a565b925050819055503373ffffffffffffffffffffffffffffffffffffffff166108fc829081150290604051600060405180830381858888f193505050501580156102ea573d6000803e3d6000fd5b5050565b600047905090565b6000600160003373ffffffffffffffffffffffffffffffffffffffff1673ffffffffffffffffffffffffffffffffffffffff16815260200190815260200160002054905090565b60016020528060005260406000206000915090505481565b60008054906101000a900473ffffffffffffffffffffffffffffffffffffffff1681565b662386f26fc100003410156103c3576040517f08c379a00000000000000000000000000000000000000000000000000000000081526004016103ba906106fa565b60405180910390fd5b34600160003373ffffffffffffffffffffffffffffffffffffffff1673ffffffffffffffffffffffffffffffffffffffff1681526020019081526020016000206000828254610412919061071a565b92505081905550565b600080fd5b6000819050919050565b61043381610420565b811461043e57600080fd5b50565b6000813590506104508161042a565b92915050565b60006020828403121561046c5761046b61041b565b5b600061047a84828501610441565b91505092915050565b61048c81610420565b82525050565b60006020820190506104a76000830184610483565b92915050565b600073ffffffffffffffffffffffffffffffffffffffff82169050919050565b60006104d8826104ad565b9050919050565b6104e8816104cd565b81146104f357600080fd5b50565b600081359050610505816104df565b92915050565b6000602082840312156105215761052061041b565b5b600061052f848285016104f6565b91505092915050565b610541816104cd565b82525050565b600060208201905061055c6000830184610538565b92915050565b600082825260208201905092915050565b7f4e6f7420746865206f776e657200000000000000000000000000000000000000600082015250565b60006105a9600d83610562565b91506105b482610573565b602082019050919050565b600060208201905081810360008301526105d88161059c565b9050919050565b7f4e6f7420656e6f75676820657468000000000000000000000000000000000000600082015250565b6000610615600e83610562565b9150610620826105df565b602082019050919050565b6000602082019050818103600083015261064481610608565b9050919050565b7f4e487b7100000000000000000000000000000000000000000000000000000000600052601160045260246000fd5b600061068582610420565b915061069083610420565b92508282039050818111156106a8576106a761064b565b5b92915050565b7f4d696e696d756d20302e30312045544800000000000000000000000000000000600082015250565b60006106e4601083610562565b91506106ef826106ae565b602082019050919050565b60006020820190508181036000830152610713816106d7565b9050919050565b600061072582610420565b915061073083610420565b92508282019050808211156107485761074761064b565b5b9291505056fea26469706673582212201262778792d2759fed597ab4a09fcdc5de5db7772b231ac1bd4012072425d94364736f6c634300081c0033",
  "linkReferences": {},
  "deployedLinkReferences": {}
}